:02000002D0002C
:1040000000400D00309B0D00000006000D00050172
:08401000040115050000000089
:10401800308F0D0009480A49884208B505D0094A79
:10402800824202D0121A04F06AFE0748074A0021A9
:10403800121A04F08AFE014808BD00BF68E1032097
:10404800909A0D00E0E10320E0E10320F0E703206F
:1040580070B502F027FD074C074BE41AA4080025A9
:104068001E46A54204D056F8253098470135F8E792
:1040780070BD00BF889A0D00349A0D0000F0A2BDF3
:1040880008B500F049FEBDE8084002F0D9BC01F0CF
:104098003DBE01F043BE01F041BE0078B0FA80F0A9
:1040A80040097047012303707047000008B501F00C
:1040B800EFFC034B1860BDE8084001F099BD00BF54
:1040C8002CE7032038B584690A4B036005467CB1A8
:1040D8006368013B63605BB9236820469B68984727
:1040E800A368013BA3601BB923682046DB68984797
:1040F800284638BD28950D0010B50446FFF7E2FFA5
:10410800204610BD10B50446FFF7DCFF20461C21F1
:1041180004F0BBF8204610BD03682BB142689342F7
:1041280002D2184604F0C6BD0020704738B50568AD
:10413800044645B143689D4205D2284604F048FE2E
:10414800013005442560204638BDF8B504460F46C1
:10415800466821B90368721C42609955F8BD084643
:1041680004F036FEA368451CAA199A4208D82068AC
:104178002A463946304404F0C2FD63681D44656030
:10418800F8BD000070B504464068A6682568054A71
:104198000B46311A284401F0D1FD636801301844F8
:1041A800606070BD978F0D0070B504464068A668C2
:1041B8002568054A0B46311A284401F0BFFD63689B
:1041C80001301844606070BD9A8F0D0013B5044625
:1041D800436881680068064AC91A8DED000B1844C7
:1041E80001F0ACFD636801301844606002B010BD96
:1041F8009E8F0D0008B503F0B5FE03681B6998474C
:10420800002809DD03F0AEFE03685B699847C1B278
:10421800034801F0D7F9EEE7014B187808BD00BF55
:104228006CE2032008B518212A2001F025FA0021A4
:104238002A20BDE8084001F057BA08B500234377A3
:10424800006802F04CF8BDE8084000F0FABE000033
:104258002DE9F0418E188EB0B14280460D461746C2
:104268000591069680F0EC800B88ADF8123005A811
:10427800FFF75CFF03689E4240F2E28005A8FFF763
:104288004BFFBDF8123047F276229342C4B200F0D9
:104298009E800DD847F26122934264D047F264228F
:1042A800934239D046F67052934240F0BB802FE0DB
:1042B80047F26472934241D047F27672934200F01B
:1042C800978047F26172934240F0AC806CE005A899
:1042D800FFF722FFC5B205A8FFF728FF059C5A493A
:1042E800204604F063FD0146002800F0A5805749E8
:1042F800204604F05BFD002800F09D8054492046CC
:1043080004F054FD002800F0968005A8FFF70EFF82
:10431800059B9E42DBD893E00AAB079307A81023BE
:1043280000254C4909930895FFF70FFF07A8214678
:10433800FFF728FF204603F053FF25E005A8FFF705
:10434800F5FE03689E427BD9A4B20121204603F002
:104358001DFF05A8FFF7E0FE011C18BF012120463C
:1043680003F025FF6CE00AAB07933B49102307A82D
:10437800002509930895FFF7E8FE07A82146FFF7EF
:1043880001FF204603F03FFF014607A8FFF70CFF97
:10439800089B0295013B0093079B01952A4614212F
:1043A800404600F051FA4BE005A8FFF7BFFE03684E
:1043B8009E4245D9A4B20121204603F0E7FE05A894
:1043C800FFF7AAFE0146204603F034FF38E00EADA1
:1043D800204605F8104D00F035FE0346284623B167
:1043E8001E4A934201D098472AE000F028FE27E0B1
:1043F80005A8FFF79BFE059B0A935D1B7D1B2046C6
:104408000B950C958DF81C4000F026FE03460AA972
:1044180007A823B1124A934201D0984710E000F050
:104428000FFE0DE0002302210091B8F81A20029334
:1044380001931946B4E70121284603F0A7FE64E773
:104448000EB0BDE8F08100BFA48F0D00A78F0D004E
:10445800AB8F0D00AF8F0D00B28F0D0047500D00D0
:1044680049500D002DE9F0418EB004AF05460522F4
:1044780007F10C01006802F0E6FB002800F0198142
:10448800052801D0002019E1B7F80D20B7F80F4032
:10449800130A43EA0222230A43EA042492B2A4B28A
:1044A800A7F80D20A7F80F40002AEBD03B7BF3B903
:1044B80000F0E0FD6B7FE860B7F80F209BB9B7F814
:1044C8000D1001290FD1042A01D0C82ADAD10124FC
:1044D80068616C77284600F06FFAFFF7E7FD00F097
:1044E800B0FD2046EAE0501F18BF0120E6E0B4F511
:1044F800806F03D92846FFF7A0FEDAE004F108032D
:1045080023F00703E846ADEB030D04AE224631461F
:10451800286802F098FB84424FF0000440F0C48001
:10452800B7F80F30F45400F0A5FD3B7BE860112B81
:1045380072D006D8062B20D00F2B60D0022B09D0C2
:10454800AEE0292B25D0372B00F0B080142B40F09B
:10455800A78054E06B7F43B901236B77284600F0AE
:104568002BFAFFF7A3FD00F06CFD0023C821B7F874
:104578000D2002930193009106E0C823B7F80D209F
:1045880000930294019423461946284600F05CF9EA
:104598008CE0AB681BB9202001F0B8FBA860B7F825
:1045A8000F40FE613444A6423C6201D300207EE005
:1045B80020223146A86804F013FC07F11C00FFF71D
:1045C800B5FD0368A34207D2F86918B13B6A98425F
:1045D80071D3002084B200E05024286801F07FFEE7
:1045E8002B68AA685A631C8700236B7700F042FD8A
:1045F800A0F59C5008382861E860686156E0FB68BF
:10460800B7F80F20C3F30F236B8331462846FFF713
:104618001FFE00236B8349E0B7F80F303C71334429
:104628009E427E61BB6141D23068B86007F11400D8
:10463800FFF77CFD7A69B7F80F30FA61961B9E1B6D
:10464800204ABB683E6293427E621DD00BD802F1BD
:10465800FD3202F10222934228D107F11C01381DD4
:1046680000F0EEFC22E0184A934213D002F19F6258
:1046780002F5003202F58072934217D107F11C014E
:10468800381D00F0DDFC11E007F11C01381D00F0B9
:10469800D7FC0BE007F11C01381D00F0D1FC05E048
:1046A8002846FFF7CAFD01E0204600E00120C54684
:1046B80004E0012002E004F001FB8BE72837BD4647
:1046C800BDE8F0817274630061636F6E2DE9F0419B
:1046D80004468AB00D46FFF7E9FC637F022B00F021
:1046E8009D80237F628B0133DBB22377002A41D17F
:1046F800022B3FD8206801F01EFC40B1002D40F08D
:104708008F80206801F002FE002800F3898000F005
:10471800B1FC0646206801F00EFC677F012F0546B4
:104728002AD120B966612046FFF787FD72E0E36869
:1047380044F63822F31A934204D92046FFF77DFD48
:10474800002567E042F21072934203D82369F31AF6
:1047580093420FD9636940F6B832F31A934209D9E4
:1047680000230293019300931A460621204600F085
:104778006BF8666101254DE0002FFBD1626950B1ED
:10478800B61A40F6B8339E42F4D9206801F0A7FD66
:104798003D4667773EE0B21A41F288339A42E9D93A
:1047A800206801F09CFDD4F800E0DEF834C0BEF8C3
:1047B8003880BCF1000F06D02B4642466146704651
:1047C80001F0E6FB0EE01F4B04930EF120070FCF1C
:1047D80005AD0FC53B682B704246634604A9704679
:1047E80001F000FD431E5D425D410DB9666111E0B7
:1047F800676801262683384604F0EAFA00238DE824
:104808000900029332463B460221204600F01CF87C
:1048180023696361237F013B23770EE000250CE0C9
:104828002046FFF71FFE054600287FF46AAF206880
:1048380001F055FD00F005FCECE728460AB0BDE89C
:10484800F08100BF28960D002DE9F04F83B000AF2E
:10485800044600683D6B894616469B46EA4601F0C9
:104868006AFB002860D019F0FD0F00F0A080B9F1B4
:10487800060F00F09C80637F012B55D116B9668B1B
:10488800002E56D0A9F10C03082B5AD97A6BBBF12C
:10489800000F14BFA8464FF00008002ABA6B08F1B1
:1048A800050314BF90464FF00008984408F1070329
:1048B80023F00703AA18ADEB030DC2F3072376BA5A
:1048C80043EA0223C7F804D08DF80090ADF80160E0
:1048D800ADF80330BBF1000F52D0002D50D02A465E
:1048E80059460DF1050004F00AFA681D7B6B002B90
:1048F80048D10025454551D2C5EB08027B682068A0
:10490800B2F5806F28BF4FF48062591901F0FDFAA3
:104918000646002000F0ACFB002E3DD1206801F0D7
:10492800DEFC667700F08DFB0C37D546BD46BDE84A
:10493800F08F238B01339BB203B901232383268B8A
:10494800A0E7E3682269934238BF134603F142089F
:1049580000F090FBC0EB080000280ADB002120468D
:10496800FFF7B4FE00F086FBC0EB08000028F5DA7C
:104978008CE7217F002989D12046FFF7A7FE85E72C
:104988000520B3E7BB6B002BB3D01A467B68796B65
:10499800184404F0B4F9ACE73544ABE703D020463B
:1049A800FFF74BFCC0E700F065FB2061BCE7002E79
:1049B8007FF46CAF63E700001FB500224923009322
:1049C80002920192034B1121FFF73EFF05B05DF8FB
:1049D80004FB00BF4C8F0D00F0B5ADF2244D08ABC1
:1049E800002405460F46059305A84FF480630E4939
:1049F800079316460694FFF7A8FB394605A8FFF764
:104A0800C1FB314605A8FFF7A0FB069B0294013BBA
:104A180000930194059B224614212846FFF714FFB2
:104A28000DF2244DF0BD00BFB58F0D0030B5ADF2CD
:104A3800244D08AB00240546059305A84FF4806370
:104A480007930694FFF781FB069B0294013B0093B2
:104A58000194059B22460E212846FFF7F5FE0DF22C
:104A6800244D30BD2DE9F0412DED048BB0EE418A87
:104A7800F0EE618AB0EE409AF0EE609AADF5846D82
:104A88001E4608AB002405468846059305A84FF442
:104A980080631849079317460694FFF756FB41466B
:104AA80005A8FFF76FFB394605A8FFF76BFBB0EECB
:104AB800490AF0EE690A05A8FFF788FBB0EE480A34
:104AC800F0EE680A05A8FFF781FB314605A8FFF755
:104AD8003CFB069B0294013B00930194059B2246F4
:104AE80014212846FFF7B0FE0DF5846DBDEC048B4C
:104AF800BDE8F081B58F0D002DE9F04114468CB06A
:104B08000546043440F6B8300F46984600F0B0FA2F
:104B18000FCC01AE0FC623686F60337000F0AAFA9D
:104B2800A0F59C50083801AF2861E86068610FCF94
:104B380007AE0FC63B68337007AF0FCF2C684FF036
:104B4800000EC4F834E0A4F8388020340FC4336869
:104B5800237042F227367446286801F0C0FB6C7750
:104B680000F088FA07466B7F012B09D000F082FA23
:104B7800C01BB04204D800212846FFF7A7FDF2E782
:104B88006B7F012BE8D10CB0BDE8F08110B588B07F
:104B98007C230A4C009363229623A72102A801F0E4
:104BA800AFFE41F6907302AA05492046FFF7A4FF1D
:104BB800637F012BFDD108B010BD00BFECE10320DD
:104BC800B88F0D0000B593B001F0F6FD4FF4E13158
:104BD80001F0E6FD00F0F6F9FFF7D8FF294A2A4868
:104BE8000121FFF7F9FE03F0BDF94FF4165103F068
:104BF800B3F900F0FFF901F0DFFD244902F06DF888
:104C08000121062003F0C2FA0021082003F0BEFAB1
:104C1800012001F0BBFF02F01DFD1D4903F026F93C
:104C280002F018FD1B4903F021F909A802F0FFF969
:104C3800194B04A8196802F010F99DF8203013F0F8
:104C4800FD0306D00023009310230DEB0302072178
:104C580007E012AABDF8101022F83A1D00930321AC
:104C6800022309A802F09CF90C4909A802F0F9F9F5
:104C780002F0F0FC002209A902F00AFB13B05DF86B
:104C880004FB00BFD98F0D00ECE10320E28F0D007B
:104C980064E2032044E3032068E10320EE8F0D0063
:104CA8002DE9F0410646884600F08CF9FFF76EFFC3
:104CB80000211448144FFFF709FD0025ECB2A04568
:104CC8001ED9335D302B06D10023104A0D483B70A6
:104CD8000121FFF781FE335D312B05D101210C4AFB
:104CE80008483970FFF778FE335D322B06D102236E
:104CF800084A04483B700121FFF76EFE0135DDE7E5
:104D0800BDE8F081ECE1032060E20320D98F0D00BB
:104D1800DC8F0D00F88F0D0070B52DED028B88B07B
:104D280002F098FC02F0D1FA30B3544D544E01F021
:104D380043FD03681B699847A0B12C68132C11D850
:104D4800631C2B6001F038FD03685B699847305598
:104D580001F032FD2B6802683344926813F8011C95
:104D68009047E4E7454B1A6832B14549454802F097
:104D7800C5F9424B00221A60434C2378022B2BD1F1
:104D880000221146FF2001F011FF404B5B7F012BF1
:104D980001D0FFF7FBFE00213C48FFF797FCFFF727
:104DA80029FA002865D03A4800F03EFA3848B0EEB3
:104DB800408AF0EE608A00F05FFA0022B0EE401AF6
:104DC800F0EE601A334BB0EE480AF0EE680A11466E
:104DD8002E48FFF747FE4CE00121062003F0E7F9D3
:104DE8002D4B08221B68ADF8162002228DF81520DD
:104DF8000293012200238DE80C000DF116010DF13C
:104E0800150306A803F0ECF8FFF70CFA237803F073
:104E1800FF023BB91046FF2101F0C8FE43F6982077
:104E280001F0E6FE2478184DE4B2012C21D10021CE
:104E38000846FF2201F0BAFE43F6982001F0D8FE9A
:104E48002B78B3B10223002106202B7003F0AFF9B1
:104E580000F0B8F8FFF79AFE00210C48FFF736FC7F
:104E68000E490A48FFF7E2FD0D4A08482146FFF7B8
:104E7800B3FD08B0BDEC028B70BD00BF4CE303204E
:104E88000CE2032064E2032060E20320ECE103204B
:104E98006CE203200A900D005CE203200F900D00E5
:104EA800F88F0D002DE9F043364B374D374FDFF8BB
:104EB8000C918FB000241C6000F00AFE284601F017
:104EC800C1FA05F11C0001F0D7FC3A4630496C6381
:104ED80028462C8703F0D4F92E4B1D605C609C603B
:104EE800DC601C615C611C835C831C775C772A4BEB
:104EF8002A4D1C704FF6FF729A805C80032000F0E8
:104F0800D7FE274BD9F8008019682C6009AE6C6071
:104F180004A801F0A2FF41463046DFF8A48001F062
:104F28009CFF04AB284602940194009610221D4968
:104F380002F07AFE3A464146284603F0A1F91A4D96
:104F48001A4BD9F8009019682C606C6004A801F01D
:104F580084FF4946304601F080FF154B01932846EF
:104F680004AB029500960422124902F05DFE3A460F
:104F78004146284603F084F90F4800F081F80FB045
:104F8800BDE8F0835CE2032020E20320E0E1032097
:104F980001410D00ECE10320E4E1032064E2032079
:104FA8006CE103202A900D0044E3032070E1032004
:104FB800A94C0D002D900D006CE2032068E1032040
:104FC80031730D0010B50A4C00231A461946606863
:104FD80000F03EFE00231A461946606800F018FEED
:104FE80000221146606800F02BFE0028F8D010BDA2
:104FF80044E5032008B503F063F801F04DFB1821E0
:105008002A2000F039FB16211D2000F035FB0F2166
:105018001F2000F031FB1421202000F02DFB20215F
:105028002D2000F029FB20212E2000F025FB002157
:105038002A20BDE8084000F057BB00F049BD704782
:10504800704770477F289ABF024B53F82000002012
:10505800704700BFA0920D007F289ABF024B53F8FB
:1050680020000020704700BFA0900D0000F030BD68
:1050780001F0BEBD00F00CBD00F02ABD00F028BD57
:1050880000220221027042708280826002730282D2
:10509800426102768283026280F824200285C2621D
:1050A80080F8302080F8382080F83920C26380F8F2
:1050B800482080F84920C26480F8582080F8592098
:1050C800026680F8682080F86920026780F87820F6
:1050D80080F87920C0F8802080F8882080F889201E
:1050E800C0F8902080F8982080F89920C0F8A02077
:1050F80080F8A82080F8A92080F8B91080F8BA2094
:1051080080F8BB2080F8BC20C0F8C020C0F8C420BC
:10511800C0F8C820C0F8CC20C0F8D020C0F8D420EF
:1051280080F8AA207047A1F14103052B02D8A1F10C
:1051380037007047A1F16103052B94BFA1F1570017
:10514800A1F13000704738B5057804462D2D08BF09
:105158000134204603F0B2FD64235843224614F874
:10516800013BA3F130010929F8D92E2B0BD1537833
:10517800303B092B07D80A2101FB03009378303B09
:10518800092B98BFC0182D2D08BF404238BD00001C
:1051980038B504460D4603F091FD6423B0FBF3F2E5
:1051A80003FB1200114B2A80434320460278A2F1E8
:1051B80030010929044600F10100F7D92E2A0BD144
:1051C8000A490A2014F8012F303A092A04D8B1FBF9
:1051D800F0F101FB0233F5E703EB8303013303220C
:1051E800B3FBF2F36B6000232B7238BD80969800F6
:1051F80010B50346044653F81C2F42605A68826073
:105208001B7A0373034653F8282F02615A684261D8
:105218001B7A037600F03CFC012360636370237003
:1052280010BD000000000000D0B500230446437004
:10523800806803F0B7FA0EA3D3E9002303F052FC09
:105248000646A0880F4603F0BDFA0B4602463946CB
:10525800304603F06BF9237B1BB1024601F1004392
:1052680001E002460B4643EC102BD0BDAFF30080A3
:105278000000000065CDCD41D0B500230446437041
:10528800406903F08FFA0EA3D3E9002303F02AFC48
:105298000646208A0F4603F095FA0B460246394621
:1052A800304603F043F9237E1BB1024601F1004367
:1052B80001E002460B4643EC102BD0BDAFF3008053
:1052C8000000000065CDCD4110B5836843600446F9
:1052D80000F0DEFB0123E0606370237010BD10B5A1
:1052E80083684360044600F0D3FB0123E0606370E9
:1052F800237010BD10B504460846FFF724FFA060D0
:1053080010BD10B50446084603F0D8FCA06010BDD7
:1053180010B5C3688360044600F0BAFB01236060DF
:105328006370237010BD10B504460846FFF70BFFE5
:10533800E06010BD10B5C3688360044600F0A8FBA8
:10534800012360606370237010BD10B504460846E1
:1053580003F0B4FCE06010BD10B5014604461030FF
:1053680003F02EFD00F094FB0123206284F8253021
:1053780084F8243010BD102203F032BDF8B590F83F
:10538800A9500446002D67D090F8AA10FFF7CBFE6D
:1053980094F8AB1002462046FFF7C5FE94F8A830F3
:1053A80000EB0210C0B283424FD1D4F8D43001339D
:1053B800C4F8D43094F8BC3023B1D4F8CC300133DD
:1053C800C4F8CC3094F8B930B3B1012B2AD104F128
:1053D8003800FFF779FF04F14800FFF780FF94F8E1
:1053E800BC30FBB12046FFF703FF04F15800FFF77C
:1053F8008FFF04F1680013E004F14800FFF76FFF26
:1054080094F8BC3033B12046FFF7F2FE04F178007F
:10541800FFF77EFF04F18800FFF78CFF04F1980086
:10542800FFF776FFD4F8C460002E00F0C580D4F8EA
:10543800C430B06A996A03F0B9FC002840F0BC8017
:105448003046FFF789FF366BEEE7D4F8D0300133EA
:10545800C4F8D0300025AFE090F8BA202ABB00F19C
:10546800AA075649384603F0A1FC08B9012308E009
:105478005349384603F09AFC10B984F8B95002E051
:10548800022384F8B930D4F8C030C4F8C430D4F852
:10549800C460002E00F090803946B06A03F086FCA4
:1054A800002880F28580336BEFE790F8B910022965
:1054B80066D090F8AA30002B62D042EA4112013A35
:1054C800282A5DD8DFE802F01520232A31464D53FB
:1054D800575C5C5C5C5C5C5C5C5C5C5C5C5C5C5C09
:1054E8005C5C5C5C5C5C5C5C151B20232A31383C92
:1054F800400000F1AA014830FFF7FCFE40E0A3F1AC
:1055080041004342434129E000F11C0108E0A3F1B6
:1055180053014B424B4180F8243031E000F128011F
:1055280004F1AA00FFF734FE2AE0A3F15702534220
:10553800534180F8303023E000F1AA0158301DE0D3
:1055480000F1AA01683019E000F1AA013830FFF72C
:10555800D8FE15E0302B94BF0023012384F8BC301B
:105568000EE000F1AA018830FFF7EFFE08E000F135
:10557800AA01983002E000F1AA017830FFF7D3FEC3
:10558800D4F8C46004F1AA07B6B1D4F8C430B06A3C
:10559800996A03F00BFC78B9F26A94F8BA309A4227
:1055A8000ADC03D139463046FFF7E5FE366BEBE7F8
:1055B80002D00023C4F8C4302846F8BDA0940D00DA
:1055C800A6940D0038B5D0F8C830242903F101039A
:1055D80004460D46C0F8C8302AD090F8BB3004D82D
:1055E8000A290CD00D2932D109E02A2907D02C2903
:1055F8002DD190F8A82082F02C0280F8A8200E2B3C
:105608004FF0000005D8234483F8AA002046FFF78E
:10561800B5FE94F8BA30013384F8BA30002384F820
:10562800BB30A5F12A035D425D4184F8A95038BD1D
:105638000020022384F8BB0084F8BA0084F8A8008C
:1056480084F8B93084F8A90084F8BC0038BD0D2B63
:105658009FBF5A1C1B1984F8BB2083F8AA5094F8E2
:10566800A90028B994F8A8104D4084F8A85038BD6E
:10567800002038BD00F02CBA38B50C46054602F0BB
:105688001FFD1D2101F020F802F01AFD03682946CC
:105698009B68984702F014FD036821469B68984769
:1056A80002F00EFDBDE8384001F015B810B504460B
:1056B80002F006FD1D2101F007F802F001FD036864
:1056C80021469B68984702F0FBFC01F004F802F0C1
:1056D800F7FC01221D2100F0EEFF02F0F1FC036847
:1056E8005B699847C0B210BD38B504460D46FFF750
:1056F800DDFF012303FA05F10143C9B22046BDE8E5
:105708003840FFF7B9BF00F0E3B9000008B5024B15
:105718001B681B68019308BD4C02030008B5024BC7
:105728001B685B68019308BD4C02030008B5024B77
:105738001B681B69019308BD4C02030008B5024BA6
:105748001B685B69019308BD4C02030008B5024B56
:105758001B689B69019308BD4C02030008B5024B06
:105768001B68DB69019308BD4C02030008B5024BB6
:105778001B681B6A019308BD4C02030008B5024B65
:105788001B689B69019308BD3802030008B5024BEA
:105798001B68DB69019308BD3802030008B5024B9A
:1057A8001B681B6A019308BD3802030008B5024B49
:1057B8001B689B6A019308BD3802030008B5024BB9
:1057C8001B681B6B019308BD3802030008B5024B28
:1057D8001B689B6B019308BD3802030008B5024B98
:1057E8001B68DB68019308BD2802030008B5024B5B
:1057F8001B685B69019308BD2802030008B5024BCA
:105808001B689B69019308BD2802030008B5024B79
:105818001B68DB69019308BD2802030008B5024B29
:105828001B681B6A019308BD2802030008B5024BD8
:105838001B685B6A019308BD2802030008B5024B88
:105848001B689B6A019308BD2802030008B5024B38
:105858001B68DB6A019308BD2802030008B5024BE8
:105868001B681B6B019308BD2802030008B5024B97
:105878001B685B6B019308BD2802030008B5024B47
:105888001B681B6C019308BD2802030008B5024B76
:105898001B681B68019308BD3C02030008B5024B56
:1058A8001B68DB68019308BD3C02030008B5024B86
:1058B8001B681B69019308BD3C02030008B5024B35
:1058C8001B685B69019308BD3C02030008B5024BE5
:1058D8001B689B69019308BD3C02030008B5024B95
:1058E8001B68DB69019308BD3C02030008B5024B45
:1058F8001B681B6A019308BD3C02030008B5024BF4
:105908001B689B6A019308BD3C02030008B5024B63
:105918001B68DB6A019308BD3C02030008B5024B13
:105928001B685B69019308BD6402030008B5024B5C
:105938001B681B6A019308BD6402030008B5024B8B
:105948001B689B6A019308BD6402030008B5024BFB
:105958001B689B68019308BD4802030008B5024B09
:105968001B681B69019308BD4802030008B5024B78
:105978001B685B69019308BD4802030008B5024B28
:105988001B681B6B019308BD4802030008B5024B56
:105998001B685B6C019308BD4802030008B5024B05
:1059A8001B68DB6C019308BD4802030008B5024B75
:1059B8001B685B6D019308BD4802030008B5024BE4
:1059C8001B689B68019308BD7802030008B5024B69
:1059D8001B685B69019308BD7802030008B5024B98
:1059E8001B681B6D019308BD7802030008B5024BC4
:1059F8001B689B6D019308BD7802030008B5024B34
:105A08001B681B6E019308BD7802030008B5034BA1
:105A18001B68D3F8A830019308BD00007802030082
:105A280008B5034B1B68D3F8AC30019308BD0000E0
:105A38007802030008B5034B1B68D3F8B430019310
:105A480008BD00007802030008B5034B1B68D3F8B3
:105A5800D830019308BD00007802030008B5034B55
:105A68001B68D3F8DC30019308BD000078020300FE
:105A780008B5024B1B685B68019308BD1802030058
:105A880008B5024B1B68DB68019308BD18020300C8
:105A980008B5024B1B685B69019308BD1802030037
:105AA80008B5024B1B685B69019308BD6C020300D3
:105AB80008B5024B1B68DB69019308BD300203007F
:105AC80008B5024B1B681B6A019308BD300203002E
:105AD80008B5024B1B681B68019308BD2C02030024
:105AE80008B5024B1B685B68019308BD2C020300D4
:105AF80008B5024B1B689B68019308BD2C02030084
:105B080008B5024B1B68DB68019308BD2C02030033
:105B180008B5024B1B681B69019308BD2C020300E2
:105B280008B5024B1B685B69019308BD2C02030092
:105B380008B5024B1B689B6A019308BD2C02030041
:105B480008B5024B1B681B6B019308BD2C020300B0
:105B580008B5024B1B689B6F019308BD2C0203001C
:105B680008B5024B1B689B68019308BD68020300D7
:105B780008B5024B1B68DB68019308BD6802030087
:105B880008B5024B1B685B68019308BD60020300FF
:105B980008B5024B1B689B68019308BD60020300AF
:105BA80008B5024B1B68DB68019308BD600203005F
:105BB80008B5024B1B689B69019308BD600203008E
:105BC80008B5024B1B68DB69019308BD600203003E
:105BD80008B5024B1B685B6B019308BD60020300AC
:105BE80008B5024B1B681B6D019308BD60020300DA
:105BF80008B5024B1B689B68019308BD440203006B
:105C080008B5024B1B68DB6B019308BD4402030017
:105C180008B5024B1B685B68019308BD400203008E
:105C280008B5024B1B689B68019308BD400203003E
:105C380008B5024B1B68DB68019308BD40020300EE
:105C480008B5024B1B681B69019308BD400203009D
:105C580008B5024B1B685B69019308BD400203004D
:105C680008B5024B1B689B69019308BD40020300FD
:105C780008B5024B1B68DB69019308BD40020300AD
:105C880008B5024B1B681B6A019308BD400203005C
:105C980008B5024B1B681B6B019308BD400203004B
:105CA80008B5024B1B685B6B019308BD40020300FB
:105CB80008B5024B1B685B68019308BD200203000E
:105CC80008B5024B1B685B69019308BD20020300FD
:105CD80008B5034B1B68D3F88830019308BD000052
:105CE8002002030008B5034B1B68D3F894300193D6
:105CF80008BD00002002030008B5034B1B68D3F859
:105D0800A030019308BD00002002030008B5024B33
:105D18001B681B68019308BD1C02030008B5024BF1
:105D28001B685B68019308BD1C02030008B5024BA1
:105D38001B689B68019308BD1C02030008B5024B51
:105D48001B68DB69019308BD1C02030008B5024B00
:105D58001B68DB6B019308BD1C02030010B50368C8
:105D680004469B689847A368013BA3602BB9236846
:105D78002046DB68BDE81040184710BD10B5044642
:105D8800006828B14368013B43600BB9FFF7E6FFA1
:105D9800204610BD10B58368044613B1032201469E
:105DA8009847204610BD00231A464068FFF730BFC9
:105DB800002202214068FFF73BBF002211464068DD
:105DC800FFF72EBF002211464068FFF739BF0023B6
:105DD8001A4619464068FFF73BBF00231A46194682
:105DE8004068FFF73DBF002281F001014068FFF7DE
:105DF8003FBF00224068FFF74BBF002211464068B2
:105E0800FFF74EBF002211464068FFF739BF2DE962
:105E1800F043002495B016460D46074600F02CFDC9
:105E2800214620220CA8009402F08FFF40230C93F7
:105E380021466B460CAA3046FFF79AFE0446002816
:105E480044D1024601216868FFF7FAFE0221804624
:105E580022466868FFF7F4FE009E81462146002E20
:105E680034D0002932D17368022B02D00A2B09D012
:105E78002AE0B8F1000F27D071693846043100F0E4
:105E88004BFD20E0B9F1000F1ED07469112201A862
:105E980002F05BFF06238DF8143001AD04F108030E
:105EA8001834186859682A4603C20833A3421546AD
:105EB800F7D101A906A807AD00F0ECFC0FCD3C1DF9
:105EC8000FC42B6823700121F669C8E70098FFF713
:105ED80047FE384615B0BDE8F0830000024B034A80
:105EE8001A6000225A60704750E30320D8940D00CE
:105EF80037B502AC036804F8011DDD6B01224FF0D1
:105F0800FF332146A84703B030BD10B40368DC6BEB
:105F18004FF0FF33A4465DF8044B604737B502AC39
:105F2800036804F8011DDD6B214613460122A847CA
:105F380003B030BD704738B543691A68002A044673
:105F480005DAB3F88620B3F884309A4201D00125E7
:105F58000BE003681B699847002814BF012500253A
:105F680003D123682046DB6A9847284638BD436931
:105F78001868C043C00F704770470020704710B5BD
:105F88001421044602F081F9204610BDFEF781B8BD
:105F98002DE9F0439846036893B0DB6A0C46064641
:105FA8001746984712AB002543F8485D2A4629460C
:105FB8002046FFF7DDFD00283ADB009B002B39D097
:105FC8005B69002B36D006A800F056FC009B5C6984
:105FD8006378022B01D1211D13E00A2B14D1112261
:105FE800294601A802F0B1FEA36833BBE36823BBCE
:105FF8004FF6FF702569FFF799FC85421DD104F122
:10600800140106A800F088FC06A800F055FC88B129
:10601800336807ADD3F82090184B0C930FCD0DAC17
:106028000FC42B6823703A4643460CA93046C8472C
:1060380004461CE04FF0FF3419E004F1080301ADF9
:106048001834186859682A4603C20833A34215460B
:10605800F7D1062301A90CA80DAD8DF8143000F076
:1060680019FC0FCD07AC0FC42B682370CCE7009840
:10607800FFF776FD204613B0BDE8F08328960D00A3
:106088007FB5164600224260029203925A1C0446CB
:106098000D4608D04FF47A72B3FBF2F1029102FB7D
:1060A80011314A43039260690823009341F20502C3
:1060B8006B4440F6FF710068FFF760FB002808DBBF
:1060C80060690023324629460068FFF777FB0028FD
:1060D80004DAFFF73BFE03686360002004B070BD7C
:1060E80010B5036804469B689847A368013BA36002
:1060F8002BB923682046DB68BDE81040184710BD5F
:1061080070B504464D69054B44F8043B8C3506468A
:106118000FCD0FC42B682370304670BD28960D0034
:1061280010B54369B3F88620B3F884309A42044620
:1061380005D06269B2F884301344187910BD036839
:106148001B6998470028F4D14FF0FF3010BD10B5F7
:106158004369B3F88620B3F884309A42044608D0DD
:106168006269B2F88430591C1344A2F88410187973
:1061780010BD03681B6998470028F1D14FF0FF3024
:1061880010BDF8B543691746B3F88620B3F88430D4
:106198009A4205460E4606D103681B69984710B90E
:1061A8004FF0FF3414E06969B1F88430B1F88640E3
:1061B800E41ABC4228BF3C46194422460431304602
:1061C80002F09DFD6A69B2F884302344A2F8843055
:1061D8002046F8BD42690023A2F884304269A2F83B
:1061E800863070472DE9F041984603680D468AB01D
:1061F800DB6A0646174698472B7D7469042B0CBF4B
:1062080002200A2006220121FFF7E0FA20607369C4
:106218001C68002C5BDB3046FFF7DCFFB8F1000F91
:1062280017D0002303A95FFA88F00393ADF8103064
:10623800FFF736FC002849DB70690623009341F21A
:106248000B0203AB40F6FF710068FFF797FA0028CE
:106258003CDB1C242246002103A802F076FD2B7D9E
:106268008DF80C40042B0CD1022338468DF80D30E4
:10627800FFF764FBADF80E006868FFF757FB049062
:1062880013E00A2338468DF80D30FFF757FB05ACAD
:10629800ADF80E002B1D05F1140718685968224641
:1062A80003C20833BB421446F7D173691C2203A901
:1062B8001868FFF773FA002808DB2C1D0FCC7669E5
:1062C8008C360FC623683370012404E00446336813
:1062D8003046DB6A984720460AB0BDE8F08110B521
:1062E800436904461868002801DBFFF74FFA636921
:1062F8004FF0FF321A606069112200218C3002F0E1
:1063080024FD2046BDE81040FFF764BF30B5426960
:10631800B2F886308BB004461BB1B2F884209A429A
:1063280040D06369186800283FDBB3F886507F2D9A
:106338003BD8191DC5F1800208232944FFF736FA16
:1063480000280CDD6369B3F886200AB9A3F8842015
:106358006269B2F886301844A2F8860025E0FFF793
:10636800F5FC03680B2B20D0FFF7F0FC03680B2B20
:106378001BD02023002502930395FFF7E7FC036851
:1063880001930E4B009302AA2B460D493220FFF7CA
:1063980027FC63691868FFF7F9F963694FF0FF3262
:1063A8001A6002E0FFF716FFBBE76269B2F88630B1
:1063B800B2F88400181A0BB030BD00BF73950D00F9
:1063C8006C950D0010B5002304460160A0F88430D8
:1063D800A0F88630883000F04FFA204610BD000043
:1063E8004FF47A7270B500238260144A43600260E9
:1063F800436183610446A0200E46FDF748FE05462A
:1064080010B13146FFF7DEFF1420FDF740FE0346CA
:1064180028B1012242608260094A02600561A069D0
:106428006561A36128B14368013B43600BB9FFF77D
:1064380057FE2046FFF7CEFE204670BD28950D007A
:106448000C950D0010B54FF0FF310446FFF7C8FF5B
:10645800204610BD10B504460068002801DBFFF790
:1064680095F9204610BD10B504692046FFF7F2FFE4
:1064780024B12046BDE81040FDF70BBE10BD002238
:1064880011464068FFF7FCBB002211464068FFF741
:1064980007BC00224068FFF7FBBB002281F0010126
:1064A8004068FFF7E5BB00231A4619464068FFF726
:1064B800D7BB00231A4619464068FFF7C9BB00221C
:1064C80011464068FFF7BCBB002211464068FFF741
:1064D800A7BB002202214068FFF7AABB00231A4687
:1064E8004068FFF795BB38B5054688B104684CB1DC
:1064F800A3681BB103222146204698471021204655
:1065080001F0C3FE28461421BDE8384001F0BDBEA5
:1065180038BD10B103685B681847704710B5036849
:106528000446BBB15868FFF711FA78B923685A7C5A
:1065380012B95868FFF712FA23685868FFF716FA75
:1065480020680023236028B1FFF7CDFF206808B139
:10655800FFF7C9FF204610BD38B50C4B0360044651
:10656800D0F8CC0108B1FDF796FDD4F8C45135B187
:106578002846FFF7D3FF0421284601F086FEA068CD
:1065880008B1FFF7C6FF204638BD00BF8C950D0047
:1065980038B50D4C0D4B23600025022304F5E4703B
:1065A8006360A560C4F8C451C4F8C851FFF7EEF998
:1065B800074BC4F8CC5123602046064A0649BDE87B
:1065C800384001F05DBE00BF58E30320D8940D00A9
:1065D8008C950D00E0E1032061650D00704710B552
:1065E8001021044601F051FE204610BD70B5084B3D
:1065F8000360044600250E4640F80C5FFFF7BEF91D
:1066080030462671FFF754FAA560204670BD00BFDA
:10661800C0950D000079FFF753BA7047F8B50646E4
:1066280015460C468F18BC4206D0336814F8011B77
:106638009B6830469847F6E72846F8BD0022007C5C
:10664800FFF7ECB80021007CFFF7F0B80021007CD0
:10665800FFF7F4B80021007CFFF7F8B80021007CB0
:10666800FFF7FCB810B51421044601F00EFE2046D1
:1066780010BD000010B504464FF47A730846A360B5
:106688000021044B207461602360FFF7F7F820466F
:1066980010BD00BFD0950D0000231A461946007C96
:1066A800FFF79CB813B50024007C0094FFF79EF810
:1066B800C0B202B010BD0123D2B2C9B2FFF7F2BF17
:1066C8000022007CFFF79AB8C9B2FFF7F9BF002291
:1066D800007CFFF79BB80121FFF7F9BF0021007C80
:1066E800FFF7C4B80B68036013B15A6801325A60E7
:1066F800704741747047704708B50021007CFFF768
:1067080025F830EA200028BF4FF0FF3008BD08B553
:106718000121007CFFF71AF830EA200028BF4FF06B
:10672800FF3008BD08B5007CFFF708F820EAE070E4
:1067380008BD08B5007CFEF7F9FF20EAE07008BD47
:10674800007CFFF713B810B51421044601F09DFD35
:10675800204610BD38B50446007C0D46FEF7EEFF16
:10676800002801DC607C28B12946207CFEF7F6FF72
:1067780020EAE07038BD000010B5044600236360CD
:106788004FF47A73A360054B2360012308462174F4
:1067980063741146FEF7BAFF204610BDF8950D0048
:1067A8000022007CFEF7BABF10B51422044600216F
:1067B80002F0CBFA204610BD30B50E4D87B001A8C7
:1067C800FFF7F2FF296811F0010410D12846FDF700
:1067D80064FC60B101AA21460748FFF7CDFF2846AF
:1067E800FDF760FC054A0649034801F049FD0248E7
:1067F80007B030BD28E503202CE50320E0E10320A5
:10680800FF660D00704710B51821044601F03DFDE4
:10681800204610BDF0B5037D062B8DB00E4600F165
:1068280004074FF0000402D000F1080518E00CAD91
:10683800394605F8304D2F232A460A20FFF76EF80F
:10684800284602F0C5FA33680246DB682946304616
:1068580098470FE024B12E21304600F02FFA044467
:1068680015F8011D0A22304600F06EFABD420444B4
:10687800F0D120460DB0F0BD10B5054B04461122ED
:1068880040F8043B002102F060FA204610BD00BF2A
:1068980028960D000346074A10B543F8042B01F16A
:1068A800100251F8044B43F8044B9142F9D10A788D
:1068B8001A7010BD28960D00037D042B01D1406885
:1068C80008E0062B0AD1436853B1836843B1C36813
:1068D80033B10069003018BF0120704700207047AD
:1068E8001846704710B59DF8084044EA032343EA68
:1068F800024242EA016104234160037510BD0000B1
:1069080037B5044D05609DF818500095FFF7EAFF6C
:1069180003B030BD28960D0037B50D788B784A78CE
:10692800C97800912946FFF7DDFF03B030BD10B5E7
:1069380004460068FFF7F2F9204610BD10B504467A
:10694800006808B1FFF7EAF900232360A3606360D9
:1069580010BD38B504460D4600680131FFF7E6F969
:1069680010B184E82100012038BD10B50368044641
:1069780013B143688B4207D22046FFF7EAFF20B1E4
:10698800A3680BB922681370012010BD70B50E46BC
:10699800114604461546FFF7E8FF18B92046FFF7E9
:1069A800CDFF09E02A463146A560206802F0A7F924
:1069B8002268A3680021D154204670BD38B5002351
:1069C800044603604360836003730D4639B108468B
:1069D80002F0FEF9294602462046FFF7D7FF204677
:1069E80038BD38B505460C4641B1084602F0F0F905
:1069F800214602462846FFF7C9FF01E0FFF79EFF40
:106A0800284638BD08B50C4B33B1FFF7D5FE0368EF
:106A18001B699847002809DC084B63B101F0A2FA0A
:106A280003681B699847002803DC08BDAFF30080A2
:106A3800F2E7AFF3008008BD00000000000000008E
:106A480008B5FFF7DFFFFFF723F8014B186008BD13
:106A58002CE7032007B5002300931A466FF077014F
:106A6800FFF740F903B05DF804FB000007B5438861
:106A78000A2B08D0502B09D1094B1B683BB103B036
:106A88005DF804EB1847FFF7E5FF06E000230093E5
:106A98001A466FF07701FFF725F903B05DF804FB9C
:106AA80040E5032010B5FEF7E3FF044602F056F96F
:106AB800074B13B12046AFF3008000210448FFF7CD
:106AC8009FF800210348BDE81040FFF701B900BF57
:106AD80000000000756A0D00002211464068FFF7AB
:106AE800AFB8002211464068FFF7CAB80022114625
:106AF8004068FFF7D5B800224068FFF7C9B8002200
:106B080081F001014068FFF7B3B800231A4619461F
:106B18004068FFF7A5B800231A4619464068FFF7F2
:106B280097B8002211464068FFF77AB80022022180
:106B38004068FFF77DB800231A464068FFF768B839
:106B480038B50C4C28252A460021204602F0FDF8CD
:106B58004FF0FF3363602580074C042320466360B1
:106B68002C25064B40F8083B2A46002102F0EDF898
:106B7800258138BD78E5032044E503203C960D00C7
:106B880010B50446FFF706F9204610BD10B50446B7
:106B9800FFF70EF8844208D01CB1BDE81040FEF79C
:106BA800F7BFBDE81040FEF7FBBF10BD70B5054646
:106BB8000E461446FEF7FCFF50B144EA062040EAB0
:106BC8000540FEF7DDFFE720BDE87040FEF7F8BF9F
:106BD80070BD00000348044A04490023836001F0A3
:106BE8004FBB00BFA0E50320E0E10320896B0D0047
:106BF8000021FFF765B80000024B1A68024B1A60C3
:106C0800704700BF74E10320B0E50320014B024A3E
:106C18001A607047B4E5032041970D0010B504468B
:106C2800FEF736FFE060236820465B699847002836
:106C380008DAFEF72DFFE368C01AA3689842F2D37A
:106C48004FF0FF3010BD2DE9F04180460D468F18FA
:106C58000C46BC42A4EB050607D04046FFF7DEFF12
:106C6800002802DB04F8010BF3E73046BDE8F081A9
:106C7800F8B506460D468F180024BD420CD033687F
:106C880015F8011B9B6830469847002801DB04442F
:106C9800F3E7002C08BF04462046F8BD70B505464A
:106CA8000C46084649B102F093F82B680246214683
:106CB8002846DB68BDE87040184770BD03689B68CC
:106CC800184738B50D210546FFF7F8FF0A21044695
:106CD8002846FFF7F3FF204438BD38B50546FFF7CF
:106CE800DDFF04462846FFF7ECFF204438BD30B5E9
:106CF8008BB00B4600218DF82410012A98BF0A2278
:106D08000DF12304B3FBF2F505FB123303F0FF0387
:106D1800092B94BF30333733DBB2214604F80139ED
:106D28002B46002DEED1FFF7B9FF0BB030BD10B4E4
:106D38002AB903685DF8044B9B68C9B21847D2B2F8
:106D48005DF8044BFFF7D3BFFFF7F1BF7047002092
:106D5800704770470020704770470020704710B593
:106D68001421044601F091FA204610BD10B51421F3
:106D7800044601F08AFA204610BD10B514210446D5
:106D880001F083FA204610BDFDF783B9FDF781B9FC
:106D9800FDF77FB908B582798B799A4206D1062228
:106DA80001F09EFFB0FA80F0400908BD002008BD40
:106DB80010B514220446002101F0C7FF204610BD7B
:106DC80010B500230370044B04461868FEF7E6FD6F
:106DD80001232370204610BDE0E5032010B5037899
:106DE80004461BB1024B1868FEF7E0FD204610BDB3
:106DF800E0E5032070B50C4605461646FFF7D8FFB8
:106E08002CB910222146284601F09FFF16E0012EDA
:106E180009D12B4604F1100254F8041B43F8041B53
:106E28009442F9D108E06A1E0F23E15C02F8011FC1
:106E3800013BDBB2FF2BF8D101232B74284670BD30
:106E480038B5044615461A46FFF7D4FF25730123C3
:106E58002D0A65732374204638BD2DE9F041884614
:106E68000746FFF7A5FFB8F1000F02D0002610254E
:106E78000FE010224146384601F067FF4AE018F853
:106E88000630A3F13002D1B2092908D8531C14D115
:106E98000136404601F09CFF8642F0D333E0A3F16F
:106EA8006102052A02D8A3F15702EFE7A3F14102D4
:106EB800052AEDD8A3F13702E8E71201013DD4B263
:106EC8007C55404601F084FF01368642E0D218F82E
:106ED8000620A2F13003D9B209290ED9A2F1610323
:106EE800052B02D8A2F1570307E0A2F14103052BB5
:106EF80094BFA2F137034FF0FF335AB201331CBFDE
:106F080014437C55C4E77B190022BB4202D003F826
:106F1800012DFAE701233B743846BDE8F0811FB51F
:106F2800037C13F0FD0F04460AD0102200216846A6
:106F380001F00BFF10226946204601F0D1FE00E067
:106F48000088003018BF012004B010BD10B5047CC3
:106F580014F0FD0F06D0102201F0C2FEB0FA80F046
:106F6800400910BD038808881B1A5842584110BDB3
:106F7800F0B58BB10024E51C8D420FD8661C055D69
:106F8800875D974205D12E44B14207D31C60681C27
:106F9800F0BD01352C44EEE71846F0BD0020F0BDE9
:106FA8002DE9F74304460E461D461746002A3AD0F7
:106FB8000A4601AB016AFFF7DBFF9DF82830226A19
:106FC80003BBF8B1961C2E44361A1F2E2BD8DDF8B9
:106FD800048008F10209C8EB0202121A00EB08014A
:106FE80005EB090092B22144204401F093FE6B1C8A
:106FF80004F808302A46394604EB090001F07FFE00
:10700800266210E0901C2B181F2B0CD86B1CA35465
:10701800224420623946567020442A4601F06FFE09
:10702800226A2A442262206A03B0BDE8F0831FB5B1
:107038000446034600F11F02002003F8010B9342A7
:107048004FF00001F9D104AA062302F8013D0123FB
:107058002162009120461946FFF7A2FF204604B09E
:1070680010BD37B5054608460C4601F0B1FE0023B1
:1070780000932246034609212846FFF791FF03B0F3
:1070880030BD73B50A460E4601AB016A0446FFF7E8
:107098006FFF054678B10198226A2918121A521B07
:1070A8002144204401F02BFE236A5D1B25623146F2
:1070B8002046FFF7E6FF02B070BD000038B5002596
:1070C800044600F8025BFFF773FE04F11600FFF7B1
:1070D8006FFE094904F12C00FFF770FC012384F8C6
:1070E8003C304FF6FF73E5642565A4F85430A56578
:1070F80084F85C50204638BDA5960D0037B5006869
:107108000C46B0B371B36AB390F83C50F42A28BF68
:10711800F4223DB1B0F84400002303B0BDE830408C
:10712800FEF788BC90F85C30F3B1037843F00801AF
:10713800082909D1B0F84410B0F854000095134656
:107148002246FEF781FC14E043F00403042B0ED121
:10715800B0F84410B0F85400009513462246FEF7E4
:107168007DFC06E0044804E06FF0D10001E06FF018
:10717800770003B030BD00BFF2FEFFFF2DE9F843F2
:1071880090E850000D461746984604EBC606A642FE
:1071980033D023689A69D96902EBC10191421BD0A7
:1071A80013689BB1B3F84200A84211D0B3F8440069
:1071B800A8420DD0B3F84600A84209D0B3F8480059
:1071C800A84205D0B3F84A00A84201D00832E5E742
:1071D80017B1B8F1000F01D10834D8E7D3F84C90B3
:1071E800B9F1000FF8D0B3F84420AA42F4D11B6DCE
:1071F800089A41463846C847EEE7BDE8F883F8B52F
:1072080090E850000F4604EBC606B442254608D065
:10721800394654F8080BFFF799FE0028F5D02846A0
:10722800F8BD0020F8BD08B500680968C28ACB8A95
:107238009A4204D101310130FFF7ACFD08BD0020AE
:1072480008BD084609B90A4601E0096A0022FEF7A6
:10725800C5BB10B50C4611B90A46084606E001211F
:107268002046FFF70EFF216A00222046BDE81040A5
:10727800FEF7BCBB13B501A8FFF7A2FD0020FEF77F
:10728800BDFB044601A8FFF7A9FD204602B010BDCA
:1072980073B505460C4601A81646FFF791FD214631
:1072A8002846FFF7CEFF002808DB31462846FFF7BF
:1072B800D0FF002802DB2846FFF7DCFF044601A8C0
:1072C800FFF78CFD204602B070BD83695B68002B18
:1072D80006DCC36958680028D4BF00200120704725
:1072E8000120704730B5836993E8140002EBC404A9
:1072F800A242134607D01D68ED8A8D4202F10802AA
:10730800F6D1184630BDC2691368526803EBC20251
:107318009A42184606D00468E48A8C4203F10803AE
:10732800F6D130BD002030BD10B504460430FEF75C
:1073380025FD204610BD10B551F8043B044640F821
:10734800043BFFF7CFF9204610BD10B551F8043BB8
:10735800044640F8043BFFF7C5F9204610BD70B558
:1073680004684368054604EBC306A64204D0201D02
:10737800FEF704FD0834F8E72868FEF7CFFC284636
:1073880070BD38B5044610200D78FCF780FE20B19A
:10739800002303604360836005732060204638BD86
:1073A80038B50468054634B12046FFF7D8FF1021E8
:1073B800204600F06AFF284638BD10B5046904F17C
:1073C8001C00FFF7EDFF2046BDE81040FCF761BE4A
:1073D80070B504684368054604EBC306A64204D0AA
:1073E800201DFEF7CBFC0834F8E700236B6070BD66
:1073F8008842F8B506460C46154614D9904213D271
:10740800A2F108056C1AA1F108070444AF4218D08C
:107418001CB129462046FFF798FF281DFEF7AEFC51
:10742800083D083CF2E70CD0AC420AD01EB1214618
:107438003046FFF78AFF201DFEF7A0FC0834083607
:10744800F2E7F8BDF8B50B68DA690E4613685168BB
:10745800054603EBC101002499420DD018688269E2
:10746800C06902EBC000904204D052F8087B87F84C
:107478005C40F8E70833EFE733684FF6FF71002206
:10748800D9827F211A701976C3F80A20C3F80E2012
:10749800C3F812202C686B6804EBC307BC4216D0F3
:1074A80031462046FFF7BFFE08B90834F6E774B145
:1074B800201DFEF763FC2B686A6804F1080103EBE2
:1074C800C2022046FFF794FF6B68013B6B60F8BD72
:1074D800F7B5044646686846FFF737FF6768A3684C
:1074E8009F4214DB0137002F0BDDF800FEF70EFC7E
:1074F800054600B394E8060001EBC202FFF778FFE7
:1075080000E000252068FEF709FC2560A7602368D5
:10751800626803EBC60503EBC202294605F10800C1
:10752800FFF766FF1DB169462846FFF70EFF63683F
:1075380001336360012501A8FEF720FC284603B04B
:10754800F0BD70B504684368054604EBC306A6425F
:1075580004D0201DFEF712FC0834F8E72868FEF76F
:10756800DDFB284670BD10B5044638B1FFF7E9FFCA
:1075780020460C21BDE8104000F087BE10BD10B5B4
:10758800044638B1FFF7DDFF20460C21BDE8104066
:1075980000F07BBE10BD000037B50025044605602D
:1075A80045608560C560056145618561C56128469E
:1075B800FEF704FA20B1254A29460A20FEF708FBFF
:1075C80001230DF1030101A88DF80330FFF7D9FE5F
:1075D8002569019B23610022019235B12846FFF7F6
:1075E800BEFE1021284600F050FE01A8FFF7D8FE85
:1075F8000120FCF74CFD636960611BB1012118464D
:1076080000F043FE0C20FCF742FD034618B10022AF
:10761800026042608260A069A36108B1FFF7A3FF1E
:107628000C20FCF734FD034618B1002202604260CA
:107638008260E069E36108B1FFF7A1FF00222146FB
:107648000348FEF7C3F9204603B030BD895A0D0040
:107658007D7A0D0010B50A4C2368DB070ED420464E
:10766800FCF71BFD50B10748FFF796FF2046FCF7D3
:1076780019FD054A0549034800F002FE014810BDFE
:10768800D8E50320B8E50320E0E1032099760D0052
:1076980010B50446C06908B1FFF771FFA06908B1C9
:1076A800FFF761FF606910B1012100F0EEFD04F100
:1076B8001000FFF775FE204610BD8842F8B5064653
:1076C8000C46154614D9904213D2A2F108056C1A3B
:1076D800A1F108070444AF4218D01CB1294620463E
:1076E800FFF729FE281DFEF749FB083D083CF2E795
:1076F8000CD0AC420AD01EB121463046FFF71BFE23
:10770800201DFEF73BFB08340836F2E7F8BDF7B555
:10771800044646686846FFF70EFE6768A3689F42FE
:1077280014DB0137002F0BDDF800FEF7EFFA0546F2
:1077380000B394E8060001EBC202FFF7BEFF00E0C9
:1077480000252068FEF7EAFA2560A76023686268CA
:1077580003EBC60503EBC202294605F10800FFF753
:10776800ACFF1DB169462846FFF7E5FD63680133A4
:107778006360012501A8FEF701FB284603B0F0BDB0
:107788002DE9F04F0C688BB006460F4614B3856997
:10779800C36904F1020A05EBC30804F1160BA845F6
:1077A80016D0D5F80090504609F10201FFF7CEFB3C
:1077B80000286BD009F116015846FFF7C7FB0028CF
:1077C80064D094F83C2099F83C309A425ED101E0AC
:1077D80023780BB930485BE094F83C30002B41D05B
:1077E80002342046FFF79BFBB0B92C4B2C491A8872
:1077F800013292B21A8001A80123FFF721FB05ADDF
:1078080001AA134603CBAB42206061601A4604F11B
:107818000804F6D11868206024242246002101A813
:1078280001F093FAADF806403C6804AAA31C04F1E1
:10783800120E18685968154603C5083373452A4659
:10784800F7D11868286023788DF80830B38AADF826
:107858002430E36A0393002204F13E0101A8FEF7F5
:10786800DFF8A8B93B689E653B68012283F85C2075
:10787800394601A8FFF75FFD01A906F11800FFF7D7
:1078880046FF02A8FEF77AFA002001E0083586E7ED
:107898000BB0BDE8F08F00BFF2FEFFFFDCE5032070
:1078A800C0970D00884270B515461AD9904219D272
:1078B800A1F10806511A0439151F44182B1F9E42BE
:1078C80025D0042C07D055F8043C44F8043C29463C
:1078D8002046FEF707FF2846FEF750FA083D083C09
:1078E800ECE714D00C1D061D231F9D420FD0042E5B
:1078F80007D054F8043C46F8043C21463046FEF7CD
:10790800F1FE2046FEF73AFA08340836ECE770BD77
:10791800F0B50F6889B00D4639460446FFF76FFC8D
:1079280000285ED1237BBBB103AE3B4607F1100CA8
:10793800B64618685968324603C208336345164686
:10794800F7D118681060002307F11402714601206E
:10795800FEF75CF8002845D1294602A851F8043BF7
:107968000193FEF7BFFE019B039302A904A8676871
:10797800FEF7B8FE6568A3689D4214DB0135002D4B
:107988000BDDE800FEF7C2F9064610B394E80600DE
:1079980001EBC202FFF786FF00E000262068FEF731
:1079A800BDF92660A5602668626806EBC70506EB88
:1079B800C202294605F10800FFF774FF35B1039BA1
:1079C80046F8373004A9281DFEF78CFE636801339A
:1079D800636004A8FEF7D2F902A8FEF7CFF90020E9
:1079E80000E0014809B0F0BDF2FEFFFF73B50025C5
:1079F8000560456006462020FCF749FB0446B0B107
:107A0800034601A903F8015BC0F801505D604FF619
:107A1800FF73C3827F23C0F80A50C0F80E50C0F825
:107A2800125003761C308DF80450FFF7AAFC00238F
:107A380014200193FCF72BFB28B1012343608360DA
:107A4800064B0360046173683460706001A8019399
:107A5800FEF794F9304602B070BD00BFAC970D0038
:107A680013B54FF0000101AA0446FFF7BFFF2046F7
:107A780002B010BDF0B504468BB00D46002900F0E9
:107A8800A58003A8FFF79CF96368033B072B00F266
:107A98009A80DFE803F0044498989898808B06A8A9
:107AA800FFF7DEFF069BA2899A8262895A822289A1
:107AB8001A822289DA81228BDA822246A17D52F843
:107AC800100F04909288ADF814200498BDF8142083
:107AD800D971C3F80100A3F805202B6813B1A96870
:107AE80006A89847A37B012B069B0BBF0222012205
:107AF8001A701A700CBFAC69EC696368002B0ADC59
:107B080006A908A8FFF721FC08A92046FFF7E0FC12
:107B180009A8FEF733F907A8FEF730F953E0A18961
:107B28002846FFF7DFFB044600284CD06B680BB1F2
:107B3800E968984723681A78012A04D12146E86938
:107B4800FFF780FC3FE0DA69A869136851680026EE
:107B580003EBC10199420DD01D68AA69ED6902EBDA
:107B6800C505954204D052F8087B87F85C60F8E7B1
:107B78000833EFE723684FF6FF710022D9827F218F
:107B88001A701976C3F80A20C3F80E20C3F8122019
:107B9800FFF71EFC17E0A18A2846FFF7A3FB90B168
:107BA800E18A0090E368226928690AE0A18A2846E8
:107BB800FFF798FB38B10568E18A0090E36822690D
:107BC800E869FFF7DBFA03A8FFF708F90BB0F0BD87
:107BD80010B50446406808B1FCF75BFA204610BDB2
:107BE80007B503690C308DE8090003F12C00FEF796
:107BF8009EFE6846FFF7ECFF03B05DF804FB00004B
:107C080038B500230446036014200D46FCF73FFAFC
:107C180028B1012343608360024B03600561206043
:107C2800204638BD74970D002DE9F04188B006460E
:107C38001D46602000238846174604930593FCF7E9
:107C480026FACDF818D00446079000B3FFF736FAA5
:107C5800414604F12C00FEF7C4FE0F9BE364109B21
:107C6800236527702B46A21C05F1140153F8040B59
:107C780042F8040B8B42F9D10E9B04F1160203F172
:107C8800140153F8040B42F8040B8B42F9D1214636
:107C9800002501AB02AA03A80795FFF7B1FF039BD4
:107CA800059A039203A805930494FEF767F806A8BB
:107CB800FFF78EFF049B059A3168336008A8736844
:107CC8000691726040F8043D05950495FEF756F854
:107CD80005A8FEF753F808B0BDE8F08110B50446D2
:107CE800406808B1FCF7D5F9204610BD73B50569A1
:107CF8000C30AC69EB698DE8210004EBC306A642A1
:107D080004D0201DFEF73AF80834F8E7A869FEF712
:107D180005F86846FFF7E2FF02B070BD38B50023EA
:107D28000446036014200D46FCF7B1F928B101237D
:107D380043608360024B036005612060204638BDC4
:107D480090970D00F0B5002687B00660466007469C
:107D580024200D46FCF79BF9CDF810D00446059079
:107D6800A0B1FFF725F8A682E682A661E661266241
:107D78002B46224605F1100618685968154603C5B2
:107D88000833B3422A46F7D11868286000232146F1
:107D9800059302AA01AB03A8FFF7C0FF039B7A680B
:107DA8003C607B6003A80392FDF7E8FF04A8FFF797
:107DB80095FF384607B0F0BDF0B50B6887B00546AB
:107DC8000C46002B46D0027B83F83C20037BC3B1D2
:107DD80008681630FFF7A3F898B90122214901A8CD
:107DE800FFF708F8236801AA163305AF164603CE35
:107DF800BE4218605960324603F10803F6D1306874
:107E080018602668163631462846FFF7F8F930B16B
:107E1800006808B32146FFF7B3FC04461EE031466C
:107E280001A8FFF78FFF01A92846FFF771FD58B990
:107E38006B682A6803F10053013B214652F833006E
:107E4800FFF79EFC044601E06FF0F90402A8FDF775
:107E580095FF03E0044C01E06FF0F904204607B0F9
:107E6800F0BD00BFC0970D00F2FEFFFF37B5044616
:107E78000D4601A8FEF7A4FF29462069FFF79CFFDD
:107E8800044601A8FEF7AAFF204603B030BD000053
:107E9800024800230360FDF779BD00BFE0E5032039
:107EA80070474174704708B5007CFDF727FD20EA4C
:107EB800E07008BD08B5007CFDF7F8FC20EAE0702A
:107EC80008BD08B5007CFDF701FD30EA200028BF99
:107ED8004FF0FF3008BD08B5007CFDF7EFFC30EA35
:107EE800200028BF4FF0FF3008BD007CFDF7F6BC2E
:107EF80010B51421044600F0C8F9204610BD70B52D
:107F0800457C04460E4625B9007CFDF7F7FC0028A1
:107F180005DD3146207CBDE87040FDF7BFBC284632
:107F280070BD000010B50446084611460022626084
:107F38004FF47A72A260054A2260012220746274AA
:107F48001A46FDF7A3FC204610BD00BF74980D002B
:107F58000023007CFDF7DABC0022FFF7F9BF007CA4
:107F6800FDF7C4BC38B50C4D296811F0010411D1D6
:107F78002846FCF792F868B1084A094B0948214697
:107F8800FFF7D0FF2846FCF78DF8074A0749054850
:107F980000F076F9034838BD7CE6032080E603202C
:107FA800F8E50320E4E50320E0E10320A97E0D00C5
:107FB80010B500240470448000294FF6FF748480B3
:107FC80007DD0139994209D232F811308380012343
:107FD80001E002D10223037010BD418010BD0000F2
:107FE80070B586B016461A46002302930C9B01937F
:107FF8000D460B9B009304460A9B31462846FDF725
:108008007BFE33462A46014604A8FFF7D1FF064BFC
:108018000498BDF8142018609A801A689B8822601A
:108028002046A38006B070BD04E70320044B00205F
:108038004FF6FF72187058809A80FDF739BE00BF5E
:1080480004E70320002211464068FDF719BE00220C
:1080580011464068FDF724BE00224068FDF718BEAF
:10806800002281F001014068FDF702BE00231A4694
:1080780019464068FDF7F4BD00231A4619464068C2
:10808800FDF7E6BD002211464068FDF7D9BD002284
:1080980011464068FDF7C4BD002202214068FDF783
:1080A800C7BD00231A464068FDF7B2BD024B032244
:1080B8005A60024A1A6070470CE70320A4980D0022
:1080C80038B50B4D296811F001040FD12846FBF78C
:1080D800E4FF58B121460748FEF7CCFA2846FBF7DB
:1080E800E1FF054A0549034800F0CAF8014838BDD0
:1080F80014E7032018E70320E0E1032023660D00BE
:1081080070B50C4C0C4E0D4D00212046FEF76EFA52
:1081180020460B4C3246294600F0B2F80121204691
:10812800FEF764FA324629462046BDE8704000F062
:10813800A7B800BF30E70320E0E10320E5650D00A4
:1081480040E7032010B504460F48FEF763FA28B14C
:10815800A4F10B03022B01D8002010BDFFF7B0FFDC
:10816800FEF7BCFA08B1012CF6D9FFF7FBFEFFF7C2
:10817800F6FE18B1A4F10903012BEDD9232C8CBF0D
:108188000020012010BD00BF30E70320232838B5A8
:1081980004460D460AD8FF2908D0FFF7D3FF28B1B7
:1081A80029462046BDE83840FDF7A2BC38BD38B5A1
:1081B80004460D46FDF7A4FCFF2810D0062804D875
:1081C8004D2323FA00F0C30709D42046FFF7BAFF6E
:1081D80028B129462046BDE83840FDF799BC38BD8E
:1081E80010B50446FDF78CFC0438C0B2012808D944
:1081F8002046FFF7A7FF20B12046BDE81040FDF755
:108208008FBC002010BD0D2810B504469CBF0E344D
:10821800A4B22046FFF796FF50B103212046FDF790
:108228005FFC032804D12046BDE81040FDF788BC58
:10823800002010BD38B504460D46FFF783FFF0B1A6
:1082480004212046FDF74CFC042805D1A9B220469C
:10825800BDE83840FDF76CBC02212046FDF740FC24
:1082680002280CD12046FDF74BFC012801D0042838
:1082780005D129462046BDE83840FDF769BC38BD20
:108288000B460146184600F01DBDFBF702BF000073
:10829800184B1A68D1075CBF01221A60164B1A687E
:1082A800D2075CBF01221A60144B1A68D0075CBF62
:1082B80001221A60124B1A68D1075CBF01221A60AA
:1082C800104B1A68D2075CBF01221A600E4B1A685D
:1082D800D0075CBF01221A600C4B1A68D1075CBF3B
:1082E80001221A600A4B1A68D2075CBF01221A6081
:1082F800704700BF6CE7032068E7032064E70320AA
:1083080060E703205CE7032058E7032054E70320D5
:1083180050E70320244B1A68D0075CBF01221A607B
:10832800224B1A68D1075CBF01221A60204B1A68D9
:10833800D2075CBF01221A601E4B1A68D0075CBFC7
:1083480001221A601C4B1A68D1075CBF01221A600F
:108358001A4B1A68D2075CBF01221A60184B1A68B8
:10836800D0075CBF01221A60164B1A68D1075CBFA0
:1083780001221A60144B1A68D2075CBF01221A60E6
:10838800124B1A68D0075CBF01221A60104B1A689A
:10839800D1075CBF01221A600E4B1A68D2075CBF76
:1083A80001221A60704700BF9CE7032098E703206A
:1083B80094E7032090E703208CE7032088E7032055
:1083C80084E7032080E703207CE7032078E7032085
:1083D80074E7032070E70320244B1A68D0075CBFBA
:1083E80001221A60224B1A68D1075CBF01221A6069
:1083F800204B1A68D2075CBF01221A601E4B1A680C
:10840800D0075CBF01221A601C4B1A68D1075CBFF9
:1084180001221A601A4B1A68D2075CBF01221A603F
:10842800184B1A68D0075CBF01221A60164B1A68ED
:10843800D1075CBF01221A60144B1A68D2075CBFCF
:1084480001221A60124B1A68D0075CBF01221A6019
:10845800104B1A68D1075CBF01221A600E4B1A68CC
:10846800D2075CBF01221A60704700BFCCE7032027
:10847800C8E70320C4E70320C0E70320BCE70320C4
:10848800B8E70320B4E70320B0E70320ACE70320F4
:10849800A8E70320A4E70320A0E70320184B1A68E5
:1084A800D1075CBF01221A60164B1A68D2075CBF5D
:1084B80001221A60144B1A68D0075CBF01221A60A7
:1084C800124B1A68D1075CBF01221A60104B1A6858
:1084D800D2075CBF01221A600E4B1A68D0075CBF36
:1084E80001221A600C4B1A68D1075CBF01221A607E
:1084F8000A4B1A68D2075CBF01221A60704700BF96
:10850800ECE70320E8E70320E4E70320E0E70320A3
:10851800DCE70320D8E70320D4E70320D0E70320D3
:1085280081F0004102E000BF83F0004330B54FEA1C
:1085380041044FEA430594EA050F08BF90EA020F89
:108548001FBF54EA000C55EA020C7FEA645C7FEA1C
:10855800655C00F0E2804FEA5454D4EB5555B8BF3F
:108568006D420CDD2C4480EA020281EA030382EAB0
:10857800000083EA010180EA020281EA0303362D42
:1085880088BF30BD11F0004F4FEA01314FF4801C15
:108598004CEA113102D0404261EB410113F0004F27
:1085A8004FEA03334CEA133302D0524263EB4303DE
:1085B80094EA050F00F0A780A4F10104D5F1200E7C
:1085C8000DDB02FA0EFC22FA05F2801841F10001D7
:1085D80003FA0EF2801843FA05F359410EE0A5F1AB
:1085E80020050EF1200E012A03FA0EFC28BF4CF0DC
:1085F800020C43FA05F3C01851EBE37101F0004592
:1086080007D54FF0000EDCF1000C7EEB00006EEB9E
:108618000101B1F5801F1BD3B1F5001F0CD3490828
:108628005FEA30004FEA3C0C04F101044FEA44527F
:1086380012F5800F80F09A80BCF1004F08BF5FEA06
:10864800500C50F1000041EB045141EA050130BDE6
:108658005FEA4C0C404141EB010111F4801FA4F189
:108668000104E9D191F0000F04BF01460020B1FADE
:1086780081F308BF2033A3F10B03B3F120020CDA16
:108688000C3208DD02F1140CC2F10C0201FA0CF0F4
:1086980021FA02F10CE002F11402D8BFC2F1200C59
:1086A80001FA02F120FA0CFCDCBF41EA0C0190400F
:1086B800E41AA2BF01EB0451294330BD6FEA040458
:1086C8001F3C1CDA0C340EDC04F11404C4F1200243
:1086D80020FA04F001FA02F340EA030021FA04F355
:1086E80045EA030130BDC4F10C04C4F1200220FAAC
:1086F80002F001FA04F340EA0300294630BD21FAEA
:1087080004F0294630BD94F0000F83F4801306BFAF
:1087180081F480110134013D4EE77FEA645C18BFA3
:108728007FEA655C29D094EA050F08BF90EA020F3A
:1087380005D054EA000C04BF1946104630BD91EA32
:10874800030F1EBF0021002030BD5FEA545C05D135
:108758004000494128BF41F0004130BD14F5800474
:108768003CBF01F5801130BD01F0004545F0FE41E8
:1087780041F470014FF0000030BD7FEA645C1ABF1D
:10878800194610467FEA655C1CBF0B46024650EA54
:10879800013406BF52EA033591EA030F41F4002180
:1087A80030BD00BF90F0000F04BF0021704730B506
:1087B8004FF4806404F132044FF000054FF00001DB
:1087C80050E700BF90F0000F04BF0021704730B59C
:1087D8004FF4806404F1320410F0004548BF404271
:1087E8004FF000013EE700BF42004FEAE2014FEAC6
:1087F80031014FEA02701FBF12F07F4393F07F4FA1
:1088080081F06051704792F0000F14BF93F07F4FD2
:10881800704730B54FF4607401F0004521F0004115
:1088280020E700BF50EA010208BF704730B54FF09B
:1088380000050AE050EA010208BF704730B511F0A0
:10884800004502D5404261EB41014FF4806404F1D8
:1088580032045FEA915C3FF4DCAE4FF003025FEA5A
:10886800DC0C18BF03325FEADC0C18BF033202EBE2
:10887800DC02C2F1200300FA03FC20FA02F001FA3C
:1088880003FE40EA0E0021FA02F11444C1E600BFDB
:1088980070B54FF0FF0C4CF4E06C1CEA11541DBF8E
:1088A8001CEA135594EA0C0F95EA0C0F00F0DEF859
:1088B8002C4481EA030621EA4C5123EA4C5350EA3E
:1088C800013518BF52EA033541F4801143F480138F
:1088D80038D0A0FB02CE4FF00005E1FB02E506F020
:1088E8000042E0FB03E54FF00006E1FB03569CF075
:1088F800000F18BF4EF0010EA4F1FF04B6F5007F7B
:1089080064F5407404D25FEA4E0E6D4146EB0606EC
:1089180042EAC62141EA55514FEAC52040EA5E5075
:108928004FEACE2EB4F1FD0C88BFBCF5E06F1ED81F
:10893800BEF1004F08BF5FEA500E50F1000041EB56
:10894800045170BD06F0004646EA010140EA020003
:1089580081EA0301B4EB5C04C2BFD4EB0C0541EA25
:10896800045170BD41F480114FF0000E013C00F33A
:10897800AB8014F1360FDEBF002001F0004170BD5E
:10898800C4F10004203C35DA0C341BDC04F1140477
:10899800C4F1200500FA05F320FA04F001FA05F203
:1089A80040EA020001F0004221F0004110EBD370D0
:1089B80021FA04F642EB06015EEA430E08BF20EAFC
:1089C800D37070BDC4F10C04C4F1200500FA04F39F
:1089D80020FA05F001FA04F240EA020001F0004131
:1089E80010EBD37041F100015EEA430E08BF20EAA4
:1089F800D37070BDC4F1200500FA05F24EEA020EEC
:108A080020FA04F301FA05F243EA020321FA04F01A
:108A180001F0004121FA04F220EA020000EBD370D1
:108A28005EEA430E08BF20EAD37070BD94F0000FD1
:108A38000FD101F00046400041EB010111F4801F05
:108A480008BF013CF7D041EA060195F0000F18BFB6
:108A5800704703F00046520043EB030313F4801FF2
:108A680008BF013DF7D043EA0603704794EA0C0FAC
:108A78000CEA135518BF95EA0C0F0CD050EA4106C2
:108A880018BF52EA4306D1D181EA030101F000413F
:108A98004FF0000070BD50EA410606BF1046194667
:108AA80052EA430619D094EA0C0F02D150EA013673
:108AB80013D195EA0C0F05D152EA03361CBF1046B4
:108AC80019460AD181EA030101F0004141F0FE4153
:108AD80041F470014FF0000070BD41F0FE4141F4D7
:108AE800780170BD70B54FF0FF0C4CF4E06C1CEAD7
:108AF80011541DBF1CEA135594EA0C0F95EA0C0F8C
:108B080000F0A7F8A4EB050481EA030E52EA033546
:108B18004FEA013100F088804FEA03334FF0805567
:108B280045EA131343EA12634FEA022245EA111594
:108B380045EA10654FEA00260EF000419D4208BF45
:108B4800964244F1FD0404F5407402D25B084FEAF2
:108B58003202B61A65EB03055B084FEA32024FF49E
:108B680080104FF4002CB6EB020E75EB030E22BFFB
:108B7800B61A754640EA0C005B084FEA3202B6EBBB
:108B8800020E75EB030E22BFB61A754640EA5C006A
:108B98005B084FEA3202B6EB020E75EB030E22BFFA
:108BA800B61A754640EA9C005B084FEA3202B6EBFB
:108BB800020E75EB030E22BFB61A754640EADC00BA
:108BC80055EA060E18D04FEA051545EA16754FEA1C
:108BD80006164FEAC30343EA52734FEAC2025FEA3A
:108BE8001C1CC0D111F4801F0BD141EA00014FF0C9
:108BF80000004FF0004CB6E711F4801F04BF01439A
:108C08000020B4F1FD0C88BFBCF5E06F3FF6AFAEB5
:108C1800B5EB030C04BFB6EB020C5FEA500C50F145
:108C2800000041EB045170BD0EF0004E4EEA1131C8
:108C380014EB5C04C2BFD4EB0C0541EA045170BDCF
:108C480041F480114FF0000E013C90E645EA060E13
:108C58008DE60CEA135594EA0C0F08BF95EA0C0F41
:108C68003FF43BAF94EA0C0F0AD150EA01347FF489
:108C780034AF95EA0C0F7FF425AF104619462CE760
:108C880095EA0C0F06D152EA03353FF4FDAE1046C3
:108C9800194622E750EA410618BF52EA43067FF414
:108CA800C5AE50EA41047FF40DAF52EA43057FF4A4
:108CB800EBAE12E70A22002100F02CB90A220021AB
:108CC80000F028B910B5054C13462CB10A460146E8
:108CD8000220AFF3008010BD204610BD0000000048
:108CE80010B501390244904207D010F8013B11F841
:108CF800014FA342F7D0181B10BD002010BD10B5BE
:108D0800431E0A44914204D011F8014B03F8014F65
:108D1800F8E710BD884210B501EB020301D8421EE6
:108D28000BE09842FBD28118D21AD34204D013F830
:108D3800014D01F8014DF8E710BD994204D011F832
:108D4800014B02F8014FF8E710BD02440346934275
:108D580002D003F8011BFAE77047000038B5124B40
:108D68001C68A36B0546D3B91820FCF7CFFF43F264
:108D78000E33A06303804AF6CD33438041F2342397
:108D880083804EF26D63C3804DF6EC630381052347
:108D980043810B23838101220023C0E90423A36BB1
:108DA80000221D615A6138BDDCE1032010F8012B57
:108DB80011F8013B012A28BF9A42F7D0D01A704710
:108DC800034611F8012B03F8012B002AF9D170474B
:108DD800034613F8012B002AFBD1181A01387047F3
:108DE80010B5034642B111F8014B03F8014B013AA3
:108DF800002CF7D11A4400E010BD934202D003F8CA
:108E0800014BFAE710BD00002DE9F04780464048C5
:108E1800D0F800900F463D4615F8014B09EB0400C9
:108E2800407800F0080000F0FF0608B12F46F2E78E
:108E38002D2C03D1BD1C7C78012603E02B2C04BF0C
:108E48007C78BD1C13B1102B0AD15BE0302C57D1B4
:108E5800287800F0DF0058284DD16C7810230235AF
:108E6800002E14BF4FF0004C6FF0004C0027BCFBE5
:108E7800F3FA384603FB1ACC09EB040E9EF801E01E
:108E88001EF0040F01D0303C0BE01EF0030E1BD087
:108E9800BEF1010F0CBF4FF0370E4FF0570ECEEB5F
:108EA8000404A34210DDB7F1FF3F0AD0504506D8AD
:108EB80001D1644503DC03FB0040012701E04FF0CA
:108EC800FF3715F8014BD7E77B1C0CD1002E4FF06C
:108ED800220314BF4FF000406FF00040C8F8003084
:108EE8002AB9BDE8F08706B1404272B107B1691EE0
:108EF8001160BDE8F0873024002BB1D10823AFE71B
:108F08000A23ADE7302CA3D0AAE7BDE8F08700BF5D
:108F180078E1032013460A46014602480068FFF735
:108F280073BF00BFDCE103201D400D0059400D0058
:108F380085400D0089400D0000000000626C6E6BDA
:108F4800696E660076657200302E352E3400682D05
:108F58006265617400313000627566662D696E0065
:108F68003130323400646576005061727469636C24
:108F780065006275696C64004A756C20313720326F
:108F88003031392031393A33313A3138000000254F
:108F98006900256C690025322E376600696E006FFE
:108FA80075740070776D00647700617700767700DC
:108FB80063353265653937613838373434303233A0
:108FC80062383236386162666535303461336666D8
:108FD8000044495341524D454400496E69746961E2
:108FE8006C697A65640062696B655468696E6700CC
:108FF800544845465420494E2050524F47524553F5
:10900800530042696B6500596F75722062696B6520
:10901800206973206265696E672073746F6C656E72
:10902800210074780072780036453430303030339F
:109038002D423541332D463339332D453041392DB5
:10904800453530453234444343413945003645348B
:1090580030303030322D423541332D463339332DBF
:10906800453041392D453530453234444343413943
:10907800450036453430303030312D423541332DBE
:10908800463339332D453041392D45353045323455
:10909800444343413945000049500D0049500D00F3
:1090A80049500D0049500D0049500D0049500D0020
:1090B80049500D0049500D0049500D0049500D0010
:1090C80049500D0049500D0049500D0049500D0000
:1090D80049500D0049500D0049500D0049500D00F0
:1090E80049500D0049500D0049500D0049500D00E0
:1090F80049500D0049500D0049500D0049500D00D0
:1091080049500D0049500D0049500D0049500D00BF
:1091180049500D0049500D0049500D0049500D00AF
:1091280049500D0049500D0049500D0049500D009F
:1091380049500D0049500D0049500D0049500D008F
:1091480049500D0049500D0049500D0049500D007F
:1091580049500D0049500D0049500D0049500D006F
:1091680049500D0049500D0049500D0049500D005F
:1091780049500D0049500D0049500D0049500D004F
:1091880049500D0049500D0049500D0049500D003F
:1091980049500D0049500D0049500D0049500D002F
:1091A80049500D0049500D0049500D0049500D001F
:1091B80049500D0049500D0049500D0049500D000F
:1091C80049500D0049500D0049500D0049500D00FF
:1091D80049500D0049500D0049500D0049500D00EF
:1091E80049500D0049500D0049500D0049500D00DF
:1091F80049500D0049500D0049500D0049500D00CF
:1092080049500D0049500D0049500D0049500D00BE
:1092180049500D0049500D0049500D0049500D00AE
:1092280049500D0049500D0049500D0049500D009E
:1092380049500D0049500D0049500D0049500D008E
:1092480049500D0049500D0049500D0049500D007E
:1092580049500D0049500D0049500D0049500D006E
:1092680049500D0049500D0049500D0049500D005E
:1092780049500D0049500D0049500D0049500D004E
:1092880049500D0049500D0049500D0049500D003E
:1092980049500D0049500D0047500D0047500D0032
:1092A80047500D0047500D0047500D0047500D0026
:1092B80047500D0047500D0047500D0047500D0016
:1092C80047500D0047500D0047500D0047500D0006
:1092D80047500D0047500D0047500D0047500D00F6
:1092E80047500D0047500D0047500D0047500D00E6
:1092F80047500D0047500D0047500D0047500D00D6
:1093080047500D0047500D0047500D0047500D00C5
:1093180047500D0047500D0047500D0047500D00B5
:1093280047500D0047500D0047500D0047500D00A5
:1093380047500D0047500D0047500D0047500D0095
:1093480047500D0047500D0047500D0047500D0085
:1093580047500D0047500D0047500D0047500D0075
:1093680047500D0047500D0047500D0047500D0065
:1093780047500D0047500D0047500D0047500D0055
:1093880047500D0047500D0047500D0047500D0045
:1093980047500D0047500D0047500D0047500D0035
:1093A80047500D0047500D0047500D0047500D0025
:1093B80047500D0047500D0047500D0047500D0015
:1093C80047500D0047500D0047500D0047500D0005
:1093D80047500D0047500D0047500D0047500D00F5
:1093E80047500D0047500D0047500D0047500D00E5
:1093F80047500D0047500D0047500D0047500D00D5
:1094080047500D0047500D0047500D0047500D00C4
:1094180047500D0047500D0047500D0047500D00B4
:1094280047500D0047500D0047500D0047500D00A4
:1094380047500D0047500D0047500D0047500D0094
:1094480047500D0047500D0047500D0047500D0084
:1094580047500D0047500D0047500D0047500D0074
:1094680047500D0047500D0047500D0047500D0064
:1094780047500D0047500D0047500D0047500D0054
:1094880047500D0047500D0047500D0047500D0044
:1094980047500D0047500D004750524D430047506C
:1094A800474741004E004E4E4500454E4500455346
:1094B8004500535345005353570057535700574ED1
:1094C80057004E4E5700000000000000000000004A
:1094D800AF5D0D00B95D0D00C35D0D00CD5D0D00E4
:1094E800D75D0D00E35D0D00EF5D0D00FB5D0D0028
:1094F800035E0D000D5E0D00175E0D0000000000FC
:1095080000000000815F0D00875F0D006F640D0093
:10951800955F0D00835F0D00000000000000000053
:10952800CD400D000D410D00F95E0D00135F0D00DB
:1095380015630D0057610D0029610D003D5F0D0099
:10954800ED610D00995F0D008B610D00E7620D0064
:109558003F5F0D00775F0D00255F0D0089600D00EE
:1095680009610D00776972696E670072656376201C
:109578006572726F72203D202564000000000000B3
:1095880000000000E5640D00DB640D00D1640D00EF
:10959800C7640D00BB640D00AF640D00A3640D002B
:1095A8009B640D0091640D0087640D00175E0D002B
:1095B8000000000000000000E5650D00E7650D00F3
:1095C800000000000000000023660D006D660D001D
:1095D80045660D0025660D004D660D0055660D00AB
:1095E8005D660D0065660D000000000000000000CB
:1095F800FF660D004F670D005D670D00796C0D006B
:109608003B670D0001670D0017670D0049670D00E6
:109618002D670D00FB660D00000000000000000033
:109628001D680D000D680D000F680D00000000009A
:10963800000000003F6B0D00356B0D002B6B0D001B
:10964800E16A0D001F6B0D00136B0D00076B0D0019
:10965800FF6A0D00F56A0D00EB6A0D00175E0D003C
:109668005A00252B3033643A253032750025592DA0
:10967800256D2D25645425483A254D3A2553257ADC
:109688000061736374696D65006C6E00666E0063DB
:109698006F64650064657461696C000D0A002530AB
:1096A80031307520005D20002C200028293A200048
:1096B800205B00636F6465203D2000646574616908
:1096C8006C73203D200062617564005365726961A6
:1096D8006C0053657269616C310074797065007053
:1096E8006172616D00636D6400696400686E640096
:1096F8007374726D0066696C74006C766C006164DA
:109708006448616E646C65720072656D6F76654859
:10971800616E646C657200656E756D48616E646C2F
:10972800657273004A534F4E53747265616D4C6F86
:109738006748616E646C657200617070006E6F6E70
:109748006500747261636500696E666F00776172A7
:109758006E006572726F720070616E696300616C91
:109768006C0000000000000000000000616D0D00AA
:10977800676D0D00E97B0D00916D0D00636D0D00A7
:1097880000000000000000005B6D0D00756D0D000D
:10979800F57C0D00956D0D005D6D0D00000000005D
:1097A80000000000556D0D00836D0D00C3730D00A2
:1097B800996D0D00576D0D007BE327747BF815AC90
:1097C800DD49A913000072F5776972696E672E6228
:1097D8006C6500537461727420646973636F766595
:1097E80072696E672073657276696365732E0053BC
:1097F8007461727420646973636F766572696E67E9
:1098080020636861726163746572697374696373F4
:109818002E0068616C5F626C655F676174745F637A
:109828006C69656E745F646973636F7665725F6196
:109838006C6C5F736572766963657328292066614D
:10984800696C65643B202564004E657720706572FD
:109858006970686572616C20636F6E6E65637465AC
:10986800642E00000000000000000000A97E0D002A
:10987800F97E0D00077F0D00796C0D00BD7E0D008F
:10988800DF7E0D00CB7E0D00F37E0D00AB7E0D005C
:10989800AF7E0D000000000000000000AB800D004E
:1098A800A1800D0097800D008D800D0081800D0036
:1098B80075800D0069800D0061800D0057800D00D6
:1098C8004D800D00175E0D00002020202020202054
:1098D8002020282828282820202020202020202058
:1098E8002020202020202020208810101010101068
:1098F80010101010101010101004040404040404B4
:10990800040404101010101010104141414141414D
:10991800010101010101010101010101010101012F
:10992800010101011010101010104242424242423F
:1099380002020202020202020202020202020202FF
:1099480002020202101010102000000000000000A7
:1099580000000000000000000000000000000000FF
:1099680000000000000000000000000000000000EF
:1099780000000000000000000000000000000000DF
:1099880000000000000000000000000000000000CF
:1099980000000000000000000000000000000000BF
:1099A80000000000000000000000000000000000AF
:1099B800000000000000000000000000000000009F
:1099C800000000000000000000000000000000008F
:1099D800000000000000000000000000000000007F
:1099E800000000000000000000000000000000006F
:1099F800000000000000000000000000000000005F
:109A0800000000000000000000000000000000004E
:109A1800000000000000000000000000000000003E
:109A2800000000000000000000000000AD4E0D0026
:109A380043500D0075500D0081500D0085500D00EC
:109A48007D560D000F570D00E55E0D0099650D0060
:109A5800496B0D00DD6B0D00016C0D00156C0D00E0
:109A6800997E0D0035800D00B5800D0009810D002F
:109A780099820D001D830D00E1830D00A5840D0062
:089A88000000000000000000D6
:109A90007A900D0030900D0055900D0089960D00C4
:109AA000D0980D0000000000D4990D00F4990D002D
:109AB000149A0D00000000000000000000000000EB
:109AC00000000000A4940D00000000000000000051
